:020000040800F2
:1000000060050020010100084716000821140008BF
:1000100045160008B9010008551900080000000045
:100020000000000000000000000000004B16000867
:10003000C901000800000000491600084D1600081C
:100040001B0100081B0100081B0100081B01000820
:100050001B0100081B0100081B0100081B01000810
:100060001B0100081B0100081B010008BD0100085E
:100070001B0100081B0100081B0100081B010008F0
:100080001B0100081B0100081B0100081B010008E0
:100090001B0100081B0100081B0100081B010008D0
:1000A0001B0100081B0100081B0100081B010008C0
:1000B0001B0100081B0100081B0100081B010008B0
:1000C0001B0100081B0100081B0100081B010008A0
:1000D0001B0100081B0100081B0100081B01000890
:1000E0001B0100081B0100081B010008DFF80CD0F1
:1000F00000F02AF800480047951900086005002024
:100100000648804706480047FEE7FEE7FEE7FEE7B1
:10011000FEE7FEE7FEE7FEE7FEE7FEE7A5160008BE
:10012000ED000008D2B201E000F8012B491EFBD21D
:1001300070470022F6E710B513460A4604461946F2
:10014000FFF7F0FF204610BD064C074D06E0E068C3
:1001500040F0010394E8070098471034AC42F6D30E
:10016000FFF7C8FF1C1A00083C1A000870B50446C7
:1001700000688168C943C9071CD1816821F0010169
:10018000816000F045FC05460FE000BF00F040FC38
:10019000401B022809D9A06A40F01000A062E06A62
:1001A00040F00100E062012070BD20688068C0431B
:1001B000C007EBD0002070BDFEE70000014800F052
:1001C00059BA00001801002070477047F8B50024A4
:1001D000009490F824202546012A12D0012280F8AC
:1001E00024204A681F23072A0DD20668776B521E07
:1001F00002EB820293409F430B6893401F43776357
:1002000019E00220F8BD06680D2A0AD2376BD21F0A
:1002100002EB820293409F430B6893401F43376376
:1002200009E0F76A0D3A02EB820293409F430B68A4
:1002300093401F43F7620A68072306680A2A0AD315
:10024000F7680A3A02EB420293409F438B6893405F
:100250001F43F76008E0376902EB420293409F4377
:100260008B6893401F4337610A68102A01D0112A16
:1002700020D1124B02689A4217D193681B0219D4FD
:10028000936843F4000393600968102912D10C4964
:100290000C4A0968B1FBF2F101EB8101490000E071
:1002A000491E00910029FBD104E0816A41F0200140
:1002B0008162012480F824502046F8BD00240140CA
:1002C0000C00002040420F002DE9F0414FF00007E4
:1002D00004003D467ED0A06A002628B9E66284F874
:1002E0002460204600F07EF82046FFF73FFFA16A19
:1002F000C90600D420B1A06A40F01000A06269E0F5
:10030000A16A21F4885141F00201A1626268E169A9
:10031000237B0A4347EA43010A43A1684FF48077ED
:10032000B94209D0012907D05FF0000194F814C048
:10033000BCF1010F02D00AE03946F7E7F3B1A36A36
:1003400043F02003A362E36A43F00103E3622368FE
:10035000D3F804C02CF4694C4CEA010CC3F804C077
:1003600021688B68DFF870C003EA0C0313438B60CD
:10037000A168B9420BD0012909D00CE0DFF85CC0BC
:10038000A3690CEB43330B4343F40061DFE7218A9D
:100390000D05A5F580152168CB6A23F470032B4366
:1003A000CB62216889680E4B1940914208D1E66200
:1003B000A16A21F0020141F00101A162BDE8F081D2
:1003C000A06A20F0020040F01000A062E06A40F055
:1003D0000100E0620120F1E7FDF7E1FF00E0FFFF2F
:1003E000FE0E1FFFF0B585B0002500950195029522
:1003F00003950646DFF8D8C003683648C8210324B1
:10040000354A364F63453AD1836943F400738361BB
:10041000836903F400730493836943F004038361E5
:10042000836903F004030493836943F00803836141
:100430008069CDE9001400F0080004906946104678
:1004400000F0F0F9009469463846019400F0EAF9AA
:10045000244C2348C4E900058020C4E90250400030
:1004600020618000C4E905052046E56100F0ACF993
:1004700008B1FFF7AAFE3462666205B0F0BD1A4DFE
:10048000AB42FAD1836943F480638361836903F4E7
:1004900080630493836943F004038361836903F0F9
:1004A00004030493836943F0080383618069CDE901
:1004B000001400F0080004906946104600F0B2F9FC
:1004C000009469463846019400F0ACF9D5E7000085
:1004D000002401400010024000080140000C0140CF
:1004E00008000240180100200028014070B50400F7
:1004F00003D094F8200010B104E0012070BD204624
:1005000000F082F82068016821F00201016000F02B
:100510007FFA0546052604E000F07AFA401B0A2817
:1005200011D8206840688007F6D42068016841F03F
:100530000101016000F06CFA05460BE000F068FA7A
:10054000401B0A2806D9606A40F40030606284F8D3
:100550002060D2E720684068C007EFD0207E0128E5
:10056000206801683DD021F080010160607E012893
:100570002068016838D021F040010160A07E012888
:100580002068016833D021F020010160E07E01285D
:10059000206801682ED041F010010160207F012801
:1005A0002068016829D021F008010160607F0128DE
:1005B0002068016824D021F004010160D4E902011F
:1005C0000843D4E90412114308436168491E0843F3
:1005D0002168C86100206062012084F820000020AA
:1005E00070BD41F08001C0E741F04001C5E741F036
:1005F0002001CAE721F01001CFE741F00801D4E75C
:1006000041F00401D9E7000010B586B00021009147
:1006100001910291039100681349884222D1134845
:10062000C16941F00071C161C16901F000710491BB
:10063000816941F00401816180690D4C00F0040082
:1006400004904FF4006000906946204600F0EAF8FC
:10065000A0140090022001900320039069462046D8
:1006600000F0E0F806B010BD006400400010024049
:10067000000801402DE9F05FC16B0C6801680B6850
:10068000D0F840C0042202FA0CF2494DDFF824A150
:10069000494E4A4FDFF828B1DFF828E122422CD03A
:1006A0005A072AD50A68920603D40A6822F004027F
:1006B0000A600168A94201D1042219E0514501D123
:1006C000402215E0B14202D14FF4806210E0B942FD
:1006D00002D14FF480420BE0594502D14FF4802201
:1006E00006E0714502D14FF4800201E04FF08062D4
:1006F0002F4908394A60C16A3BE04FF0020808FA06
:100700000CF818EA040F4FF000094FF0010235D041
:100710005FEA837832D50B689B0605D40B6823F01B
:100720000A030B6080F821200168A94201D102224E
:1007300019E0514501D1202215E0B14202D14FF418
:10074000007210E0B94202D14FF400520BE059455B
:1007500002D14FF4003206E0714502D14FF400128D
:1007600001E04FF00072124908394A6080F8209089
:10077000816A00291AD0BDE8F05F0847082505FA0C
:100780000CF5254212D01B0710D50B6823F00E0381
:100790000B6090F84010C36B02FA01F1596082635C
:1007A00080F8212080F82090016BE2E7BDE8F09FFF
:1007B000080002401C000240300002404400024099
:1007C000580002406C00024030B528B308C81349F5
:1007D00014221944B1FBF2F18900C163104981630D
:1007E000022141771A6843F6F0718A43D0E9001478
:1007F0002143D0E902452C43214304692143446944
:10080000214384692143114319600021416301227E
:1008100042770177084630BD012030BDF8FFFDBFAB
:10082000000002402DE9F84FDFF8B891002409F1EB
:10083000040A0AF1040B23460F270BF1040EC9E04A
:100840000125A5402A40AA427DD1674ED1F804C0B7
:10085000ACEB0608B44532D014DCBCF1030F3AD03F
:1008600009DCBCF1000F2AD0BCF1010F1CD0BCF197
:10087000020F31D11DE0BCF1110F17D0BCF1120FE6
:100880002AD119E0B8F5881F19D006DCB8F5803FE9
:1008900015D0B8F5801F1FD111E0B8F5001F0ED09C
:1008A000B8F5041F18D10AE0CB6815E0CB681B1D12
:1008B00012E0CB6808330FE0CB680C330CE08B6898
:1008C0002BB1012B4FF0080303D0456104E0042352
:1008D00002E0056100E00023FF2A01D8064601E09E
:1008E00000F104064FEA840501D9A5F12005D6F8E8
:1008F000008007FA05FC28EA0C0803FA05F548EA27
:100900000508C6F800804D68ED0062D5374DAE6928
:1009100046F00106AE61AD6924F0030605F001055D
:100920000095334D06EB050CDCF80850A607360F92
:1009300007FA06F825EA0805DFF8B880404503D134
:100940004FF0000817E044E0DFF8AC80404502D1EA
:100950004FF001080FE0DFF8A480404502D14FF0CE
:10096000020808E0DFF89880404502D14FF0030804
:1009700001E04FF0040808FA06F848EA0508CCF848
:1009800008804D68D9F80060ED034D4601D5164347
:1009900000E096432E604D68DAF80060AD035546DE
:1009A00001D5164300E096432E604D68DBF80060E9
:1009B000ED025D4601D5164300E096432E604D687A
:1009C000DEF80060AD02754601D5164300E096439F
:1009D0002E60641C0D682A46E5407FF431AFBDE807
:1009E000F88F0000000401400000111000100240C8
:1009F0000000014000080140000C014000100140CF
:100A0000001401400AB1016170470904FBE70000CE
:100A1000014880687047000000000020024881689B
:100A2000027811448160704700000020074810B52B
:100A3000016841F010010160032000F075F800200A
:100A400000F006F800F024F8002010BD002002405D
:100A500070B50D4D04464FF47A712878B1FBF0F073
:100A60000A490968B1FBF0F000F062FB48B9102CAC
:100A700007D200222146501E00F036F800206C609C
:100A800070BD012070BD0000000000200C0000209F
:100A90000C4808B5816941F001018161816901F06B
:100AA00001010091C16941F08051C161C06900F04C
:100AB000805000900448416821F0E06141F00071ED
:100AC000416008BD0010024000000140002809DB21
:100AD00000F01F02012191404009800000F1E02058
:100AE000C0F8001170470000F0B40E4B1B680C46B4
:100AF000C3F30223C3F10705042D00D90425191DF2
:100B0000072901D2002300E0DB1E012606FA05F1C9
:100B1000491E214099409E40761E16403143F0BC4C
:100B200000F019BF0CED00E0064900F0070208686C
:100B30004FF6FF03184040EA0220034A10430860C2
:100B4000704700000CED00E00000FA052DE9F843C5
:100B500005460078354CC00754D0E0690026C00037
:100B600008D4E06940F08050E061E069012600F0BF
:100B7000805000902E480168C90512D40168804653
:100B800041F480710160FFF743FF074605E000BFB5
:100B9000FFF73EFFC01B642823D8D8F80000C0052B
:100BA000F6D5206A10F4407021D0A98801F4407174
:100BB00081421CD0206A1F49012220F440700A6043
:100BC00000220A602062C00711D0FFF721FF07460C
:100BD00041F2883808E000BFFFF71AFFC11B41450A
:100BE00002D90320BDE8F883206A8007F4D5206A83
:100BF000696820F44070084320621EB1E06920F06B
:100C00008050E0612878800705D56068A96820F4E5
:100C10004040084360602878C00605D56068E968F0
:100C200020F48000084360600020DBE700100240F1
:100C300000700040400442422DE9F0470F46050095
:100C400061D0434E306800F00700B84209D23068E6
:100C500020F0070038433060306800F00700B842E9
:100C600051D128683B4C810712D5400703D56068F5
:100C700040F4E06060602878000703D5606840F4C5
:100C8000605060606068A96820F0F0000843606010
:100C90002878C00728D06868012810D02168022869
:100CA00010D0890700292EDA616821F00301014381
:100CB0006160FFF7ADFE804641F288390DE02168A2
:100CC0008903EFE78901EDE7FFF7A2FEA0EB08013A
:100CD000494502D90320BDE8F0876068696800F0E3
:100CE0000C00B0EB810FEFD1306800F00700B84284
:100CF0000BD9306820F0070038433060306800F0CE
:100D00000700B84201D00120E5E72878400705D563
:100D10006068E96820F4E0600843606028780007B4
:100D200006D56068296920F4605040EAC10060601F
:100D300000F038F86168084AC1F30311515CC840FB
:100D40000649086006480068FFF782FE0020C2E7F7
:100D50000020024000100240041A00080C0000208D
:100D6000040000200448054900684968044AC1F3AA
:100D70000221515CC84070470C0000200010024066
:100D8000141A00080448054900684968044AC1F378
:100D9000C221515CC84070470C0000200010024086
:100DA000141A000812A185B00FC98DE80F0014A015
:100DB000144A006804905168134801F00C03042B96
:100DC00010D0082B0ED1C1F38343C9031DF80300D3
:100DD0000AD5516804AAC1F34041515C0A4A504304
:100DE000B0FBF1F005B0704708494843FAE700004E
:100DF00002030405060708090A0B0C0D0E0F10105C
:100E0000010200000010024000127A0000093D00BB
:100E10002DE9F84F040070D02078C04DC00749D0AC
:100E20006868C0F38100012807D06868C0F38100BA
:100E3000022809D16868C00306D52868800339D51F
:100E400060680028E7D035E06068B0F5803F0BD0DF
:100E500010B1B0F5A02F11D0286820F480302860A0
:100E6000286820F4802002E0286840F48030286060
:100E7000606890B1FFF7CCFD06460AE0286840F4B0
:100E800080202860F0E700BFFFF7C2FD801B6428C8
:100E900073D828688003F7D50CE0FFF7B9FD064644
:100EA00005E000BFFFF7B4FD801B6428F0D8286878
:100EB0008003F7D420789A4E80074FF001094FF055
:100EC000000839D5686810F00C0F07D06868C0F3C7
:100ED0008100022809D16868C00306D42868800709
:100EE00014D52069012808D110E02069B0B1C6F8F6
:100EF0000090FFF78DFD074605E00AE1FFF788FD4A
:100F0000C01B0228C4D828688007F7D52868616903
:100F100020F0F80040EAC10028600DE0C6F800802B
:100F2000FFF776FD074604E0FFF772FDC01B0228BD
:100F300023D828688007F7D4207800072CD5794873
:100F4000A169D9B1C0F80090FFF762FD074604E03F
:100F5000FFF75EFDC01B02280FD8686A8007F7D52F
:100F600071484FF4FA510068B0FBF1F0009000BFF7
:100F70000098411E0091FAD20EE080E0C0F8008097
:100F8000FFF746FD074604E0FFF742FDC01B0228BD
:100F900075D8686A8007F7D42078400760D5E8697B
:100FA0000027C00008D4E86940F08050E861E86993
:100FB000012700F0805000905C480168C90513D4F7
:100FC0000168834641F480710160FFF721FD82468C
:100FD00006E000BFFFF71CFDA0EB0A0064284ED816
:100FE000DBF80000C005F5D5E06801280AD008B19B
:100FF000052813D0286A20F001002862286A20F012
:10100000040002E0286A40F001002862E06841F232
:10101000883B98B1FFF7FCFC82460BE0286A40F061
:1010200004002862EEE700BFFFF7F2FCA0EB0A0124
:1010300059455AD8286A8007F6D50CE0FFF7E8FC36
:10104000824605E0FFF7E4FCA0EB0A0159454CD8C5
:10105000286A8007F6D41FB1E86920F08050E86163
:10106000E06988B36968C1F38101022944D002288C
:10107000C6F8608004D0FFF7CBFC044638E034E0CB
:10108000FFF7C6FC074604E0FFF7C2FCC01B0228BE
:101090002BD828688001F7D4206AB0F5803F05D1AD
:1010A0006868A16820F4003008436860D4E908014A
:1010B0000843696821F4741108436860C6F86090B9
:1010C000FFF7A6FC044606E025E000BFFFF7A0FC02
:1010D000001B022809D828688001F7D51BE000BF53
:1010E000FFF796FC001B022802D90320BDE8F88F09
:1010F00028688001F4D40EE00128F7D06868226ADD
:1011000000F48031914204D1616A00F47010884289
:1011100001D00120EAE70020E8E7000000100240CB
:1011200000004242800442420C0000200070004057
:1011300010B5401EB0F1807F01D3012010BD4FF0EB
:10114000E02460610F21601700F005FC0020A06121
:1011500007202061002010BD70B590F83C20012AC6
:1011600019D0012400F83C4F0222427050F83C3C58
:101170005A689D6822F070060A684968324325F073
:10118000800529435A6050F83C2C9160447000213E
:101190000170084670BD022070BD000010B586B019
:1011A000002100910191029103910068B0F1804FFC
:1011B0002BD11748816941F004018161816901F0F7
:1011C00004010491816941F0080181618069022470
:1011D00000F0080004900320CDE9000469460D48A2
:1011E0000394FFF71FFB4FF44060CDE9000469460C
:1011F00009480394FFF716FB0848416821F4407141
:1012000041F0E06141F40071416006B010BD0000A2
:101210000010024000080140000C014000000140A5
:1012200070B5044690F83C000D4601280DD001260B
:1012300084F83C60022084F83D0042B1042A18D0B2
:10124000082A2AD00C2A4DD139E0022070BD20682E
:1012500000F082FA2068816941F00801816120680C
:10126000816921F004018161206881692A69114343
:1012700011E0206800F098FA2068816941F400616B
:1012800081612068816921F48061816120688169C0
:101290002A6941EA0221816124E0206800F0B0FA65
:1012A0002068C16941F00801C1612068C16921F06D
:1012B0000401C1612068C1692A69114311E02068F5
:1012C00000F0CAFA2068C16941F40061C161206878
:1012D000C16921F48061C1612068C1692A6941EA5C
:1012E0000221C16184F83D60002084F83C0070BD9B
:1012F00010B5040003D094F83D0010B107E00120C0
:1013000010BD002084F83C00204600F00DF80220BB
:1013100084F83D00211D206800F0E8F9012084F8E0
:101320003D00002010BD000008B50068B0F1804FFE
:1013300008D10548C16941F00101C161C06900F0EF
:101340000100009008BD00000010024070B50400CC
:1013500004D094F83900002510B106E0012070BDDA
:1013600084F83850204600F023F8242084F839000F
:101370002068C16821F40051C160204600F08EFA57
:101380002068016921F4904101612068416921F0E0
:101390002A0141612068C16841F40051C160E563E0
:1013A000202084F8390084F83A00002070BD000045
:1013B00030B585B000240094019402940394006831
:1013C0001449884224D11448816941F480418161E3
:1013D000816901F480410491816941F004018161D6
:1013E00080690E4D00F0040004904FF400700090EE
:1013F000022001900320039069462846FFF712FA65
:101400002815CDE90004694628460294FFF70AFA38
:1014100005B030BD00380140001002400008014016
:10142000FEE700003EB500240D48009401940294AC
:101430000A498460016004730475012505614FF455
:1014400060214460C161FEF73FFF0320CDE9000544
:10145000694602940248FEF7B9FE3EBD00240140F1
:10146000100000203EB500240D4800940194029421
:101470000A498460016004730475012505614FF415
:1014800060214460C161FEF71FFF0720CDE9000520
:10149000694602940248FEF799FE3EBD00280140CD
:1014A00040000020094808490160102141600021E6
:1014B0008160C16001614161017641768176C176CA
:1014C00001774177FFF712B80064004070000020F8
:1014D0002DE9F04F85B00024364800940194029421
:1014E0000394816941F010018161816901F010016B
:1014F0000491816941F020018161816901F020013D
:101500000491816941F004018161816901F0040164
:101510000491816941F0080181618069DFF8989048
:1015200000F008004FF48045049000222946484608
:10153000FFF768FADFF884A04FF42047002239460D
:101540005046FFF75FFADFF878B04FF4807800225A
:1015500041465846FFF756FA0095022601250396A4
:10156000CDE9015469464846FFF75CF9E803CDE947
:101570000004694648460294FFF754F97810CDE913
:101580000004694650460294FFF74CF90097039611
:10159000CDE9015469465046FFF744F9CDF8008083
:1015A0000396CDE9015469465846FFF73BF905B06B
:1015B000BDE8F08F0010024000100140000C014017
:1015C0000008014070B58AB0002407941C216846C9
:1015D0000894FEF7AEFD1A484FF080414FF4E165E4
:1015E000C0E90014C0E9024504618461FFF780FE90
:1015F000079407A912480894FFF7AEFD60200090F9
:101600006E10CDE90164002269460D480494FFF78D
:1016100007FE042269460A480195FFF701FE0822E9
:1016200069460748FFF7FCFD0C226946044801960D
:10163000FFF7F6FD0248FFF7B1FD0AB070BD0000EC
:1016400098000020FEE7704770477047FFF7E6B943
:1016500030B593B028216846FEF76BFD14210AA827
:10166000FEF767FD002401200F94022504900095E9
:101670001020119405901094129407946846FFF777
:10168000C7FB0F20CDE90A040C940D9400210AA891
:101690000E94FFF7D1FA0FA80F951194FFF756FAA1
:1016A00013B030BD0D48016841F00101016041688F
:1016B0000B4A1140416001680A4A1140016001680B
:1016C00021F480210160416821F4FE0141604FF462
:1016D0001F0181600449C003086070470010024088
:1016E0000000FFF8FFFFF6FE08ED00E0F0B502682D
:1016F000164B174C174D4FF08047984205D0B84213
:1017000003D0A04201D0A84203D122F070064A685B
:101710003243984205D0B84203D0A04201D0A8423B
:1017200003D122F44074CA6822434C6922F080023B
:10173000224302608A68C2620A688262984201D1CA
:101740000969016301214161F0BD0000002C0140E5
:10175000000400400008004030B5026A22F0010297
:101760000262026A4368846924F073050C682C43A2
:1017700022F002058A682A430A4DA8420BD122F0C2
:101780000805CA6823F440732A434D6922F0040215
:101790001D438B692B434360846149684163026246
:1017A00030BD0000002C014030B5026A22F010026A
:1017B0000262026A436884690D6824F4E64444EADC
:1017C00005248D6822F0200242EA05120B4DA84242
:1017D0000ED1CD6822F0800242EA05124D6923F451
:1017E000406343EA85038D6922F0400243EA8503A2
:1017F0004360846149688163026230BD002C01400E
:1018000030B5026A22F480720262036A4268C469D7
:1018100023F4007324F073050C682C438D6843EAAD
:1018200005230C4DA8420ED1CD6823F4006343EA92
:1018300005234D6922F4405242EA05128D6923F4D2
:10184000806342EA05124260C4614968C163036271
:1018500030BD0000002C014030B5026A22F48052F5
:101860000262046A4268C3690D6823F4E64343EAEE
:1018700005238D6824F4005444EA0534064DA8423B
:1018800004D14D6922F4804242EA85124260C3616C
:1018900049680164046230BD002C01402DE9F0412B
:1018A000044600680169E26821F440511143016176
:1018B0002169A0680843616908432168CA6841F248
:1018C0000C639A430243CA6020684169A26921F40B
:1018D0004071114341611E492068642532268842C7
:1018E00002D1FFF74FFA01E0FFF73CFA00EBC0012D
:1018F00001EB001160686FF018078000B1FBF0F297
:10190000B2FBF5F2B1FBF0F37A4303EB8202B1FBD9
:10191000F0F306EB0212B2FBF5F2B3FBF5F302F0C3
:10192000F00202EB0312B1FBF0F3B1FBF0F0B0FBFD
:10193000F5F0784303EB800006EB0010B0FBF5F008
:10194000216800F00F0010448860BDE8F0810000BD
:1019500000380140FEE70907090E002804DB00F10A
:10196000E02080F80014704700F00F0000F1E02044
:1019700080F8141D704702E008C8121F08C1002A31
:10198000FAD170477047002001E001C1121F002A00
:10199000FBD1704708B5FFF749F8FFF759FEFFF78D
:1019A00097FD1548416941F00101416140690022FC
:1019B00000F00100009011460B20FFF795F80B2076
:1019C000FFF784F8FFF72EFDFFF74CFDFFF76AFDE8
:1019D000FFF7F8FD0A4809490C2201604FF4E13194
:1019E000416000218160C160C0E904128161C16170
:1019F000FFF7ACFCFEE70000001002400038014099
:101A0000D8000020000000000000000001020304D4
:101A10000607080900000000010203043C1A000840
:101A20000000002010000000761900084C1A000881
:101A30001000002050050000861900080100000079
:0C1A400010000000000000000024F40072
:04000005080000ED02
:00000001FF
