:020000040800F2
:1000000018070020890100089101000893010008E9
:100010009501000897010008990100080000000000
:100020000000000000000000000000009B0100082C
:100030009D010008000000009F010008D106000893
:10004000A3010008A3010008A3010008A301000800
:10005000A3010008A3010008A3010008A3010008F0
:10006000A3010008A3010008A3010008A3010008E0
:10007000A3010008A3010008A3010008A3010008D0
:10008000A3010008A3010008A3010008A3010008C0
:10009000A3010008A3010008A3010008A3010008B0
:1000A000A3010008A3010008A3010008A3010008A0
:1000B000A3010008A3010008A3010008A301000890
:1000C000A3010008A3010008A3010008A301000880
:1000D000A3010008B9080008A3010008A301000853
:1000E000A3010008A3010008A301000800F002F822
:1000F00000F03AF80AA090E8000C82448344AAF188
:100100000107DA4501D100F02FF8AFF2090EBAE885
:100110000F0013F0010F18BFFB1A43F0010318473B
:10012000CC1A0000EC1A0000103A24BF78C878C13D
:10013000FAD8520724BF30C830C144BF04680C60ED
:10014000704700000023002400250026103A28BF35
:1001500078C1FBD8520728BF30C148BF0B60704739
:100160001FB51FBD10B510BD00F031F81146FFF7E7
:10017000F7FF01F04FF800F04FF803B4FFF7F2FF7C
:1001800003BC00F057F800000948804709480047C1
:10019000FEE7FEE7FEE7FEE7FEE7FEE7FEE7FEE737
:1001A000FEE7FEE704480549054A064B7047000094
:1001B000D5060008ED0000081801002018070020EF
:1001C00018030020180300207047704770477546D9
:1001D00000F02CF8AE4605006946534620F00700B3
:1001E000854618B020B5FFF7DDFFBDE820404FF091
:1001F00000064FF000074FF000084FF0000B21F011
:100200000701AC46ACE8C009ACE8C009ACE8C009DD
:10021000ACE8C0098D46704710B50446AFF30080C6
:100220002046BDE81040FFF7A8BF00000048704717
:10023000B800002001491820ABBEFEE726000200EE
:1002400070470029816802D041F0010101E021F0EE
:1002500001018160704700000D4910B5884202D14C
:10026000012144150AE00B49884202D101210415FD
:1002700004E0094988420AD10121CC03204600F05C
:1002800071F92046BDE81040002100F06BB910BDA7
:100290000024014000280140003C014001460020AC
:1002A0008968490700D501207047C06C80B270474B
:1002B0000246002012680A4200D001207047014621
:1002C00000208968090700D50120704710B54268F1
:1002D0000E4B0C791A400B6842EA04221343436028
:1002E00082680B4B1A40D1E9024323434C7942EA1E
:1002F000440213438360C26A097C22F47002491EDF
:10030000C9B242EA0151C16210BD0000FFFEF0FF18
:10031000FDF7F1FF70B5072609290AD9C568A1F1D3
:100320000A0404EB4404A640B543A3401D43C56042
:1003300007E0056901EB4104A640B543A3401D4316
:1003400005611F23072A09D2446B521E02EB820269
:1003500093409C4391400C43446370BD0D2A09D2E5
:10036000046BD21F02EB820293409C4391400C43EA
:10037000046370BDC46A0D3A02EB820293409C4351
:1003800091400C43C46270BD816841F008018160F6
:1003900070470029816802D041F4A00101E021F4F6
:1003A000A00181607047816841F00401816070475D
:1003B0004FF40041014800F07FB800000008014000
:1003C000F0B5CC78002204F00F03E40601D58C7858
:1003D00023430C784FF00F0C14F0FF0F4FF0010E79
:1003E0001BD005680E880EFA02F42640A64210D1F2
:1003F00096000CFA06F725EA070703FA06F5CE7809
:100400003D43282E02D0482E02D002E0446100E095
:100410000461521C082AE5D305600A88FF2A1CD90A
:100420004468002202F108060EFA06F50E882E40F6
:10043000AE420ED196000CFA06F7BC4303FA06F75B
:10044000CE783C43282E00D14561CE78482E00D18D
:100450000561521C082AE5D34460F0BDF0B5144C88
:10046000002801DAE36900E06368450D2E0185B2DA
:10047000C0F30157B540C0F30342032F05D0C602B5
:100480000AD503269640B34307E023F07062636801
:1004900023F07063636002E0AB4343F0706201B12C
:1004A0002A43002801DAE261F0BD6260F0BD00007D
:1004B00000000140416170470161704730B50F2372
:1004C000C27801780125F2B1144A126801F1E021E5
:1004D00002F4E062C2F5E062120AC2F10404D34001
:1004E0004278A24084781C401443220181F8002401
:1004F000007800F01F018D404009800000F1E020ED
:10050000C0F8005130BD01F01F008540480980004F
:1005100000F1E020C0F8805130BD00000CED00E09B
:10052000034A516821F44041014351607047000083
:1005300000100240044A0029D16901D0014300E0C3
:100540008143D1617047000000100240044A002935
:10055000916901D0014300E081439161704700003F
:1005600000100240044A0029D16801D0014300E094
:100570008143D160704700000010024030B5204A2E
:100580005168204B11F00C0103D0042901D0082937
:1005900001D0036012E05168536801F470114FF00C
:1005A000020413F4803F04EB914102D053689B0393
:1005B00001D5154B00E0134B5943016051680F23DF
:1005C00003EA1111114B5C5C0168E1404160546821
:1005D000072505EA14241C5D21FA04F4846054689C
:1005E00005EAD4241B5DD940C1605268032303EAA5
:1005F0009232064B1B1F9A5CB1FBF2F1016130BDD8
:100600000010024000127A0000093D00480000205E
:100610000CB50022264800920192016841F4803115
:1006200001604FF4A063016801F400310191009969
:10063000491C0091019911B900999942F3D10168BF
:10064000890333D5012101911A490A6842F0100249
:100650000A600A6822F003020A600A6842F0020295
:100660000A604168416041684160416841F48061CD
:100670004160416821F47C114160416841F4E81116
:100680004160016841F08071016001688901FCD519
:10069000416821F003014160416841F0020141607D
:1006A0004168C1F381010229FAD10CBD01920CBD50
:1006B00000100240002002404FF0E02104280869A9
:1006C00003D020F004000861704740F00400FAE70E
:1006D000704700000F4810B5016841F0010101604A
:1006E00041680D4A1140416001680C4A11400160A7
:1006F000016821F480210160416821F4FE0141601C
:100700004FF41F018160FFF783FF05494FF0006040
:10071000086010BD001002400000FFF8FFFFF6FE69
:1007200008ED00E00029018802D041F0800101E0DD
:1007300021F08001018070470029018802D041F03A
:10074000010101E021F0010101807047002930F82A
:10075000441F02D041F4004101E0C1F30E010180C9
:100760007047028B22F008020A4302837047028B13
:100770004FF6FF7322F4006203EA01211143018363
:100780007047828B22F008020A4382837047000080
:1007900070B5028C22F480520284058C8288838B8F
:1007A0000C8823F4E6464FF6FF7303EA042434432F
:1007B00025F400560D8903EA053535434E8803EAD2
:1007C00006362E43094DA84202D0094DA84205D154
:1007D00022F480458A8903EA82122A438280848334
:1007E000C988A0F84010068470BD0000002C0140AC
:1007F00000340140828B4FF6FF7322F4006203EA5B
:1008000001211143818370478186704701877047BA
:1008100081877047A0F840107047000030B502880B
:100820001B4C1C4DA0420DD0A8420BD0B0F1804F04
:1008300008D0194B984205D0184B984202D0184B5B
:10084000984203D122F070034A881A43154B98420C
:1008500006D0154B984203D022F44073CA881A433D
:1008600002808A8882850A880285A0420AD0A8422E
:1008700008D00E4A904205D00D4A904202D00D4A4F
:10088000904201D1097A01860121818230BD0000A8
:10089000002C0140003401400004004000080040EA
:1008A000000C0040001000400014004000400140D7
:1008B000004401400048014010B5074C40F225516A
:1008C000204600F015F8002804D02046BDE810406E
:1008D00000F09CB810BD000000380140002981895B
:1008E00002D041F4005101E021F4005181817047B0
:1008F00070B501F01F0501260024C1F3421306FA6A
:1009000005F2012B0FD0022B0FD0838A4FEA112161
:100910000088134206FA01F600EA060001D000B191
:100920000124204670BD8389F0E7038AEEE710B505
:10093000C1F3421301F01F040121A140012B07D094
:10094000022B07D01430002A026805D00A4304E0C5
:100950000C30F8E71030F6E78A43026010BD000063
:1009600030B50446008A85B00D464CF6FF7108404C
:10097000E98801432182A0894EF6F3110840A98835
:100980002A8911436A8902431143A181A08A4FF643
:10099000FF410840A9890143A1826846FFF7EEFDA7
:1009A0001948844201D1039800E00298A189090402
:1009B00000EBC00101EB0010296801D5490000E0FF
:1009C0008900B0FBF1F06422B0FBF2F109010B09E0
:1009D0006FF018056B4300EB8300A3891D044FF0F3
:1009E000320306D503EBC000B0FBF2F000F00700C5
:1009F00005E003EB0010B0FBF2F000F00F0008433D
:100A0000208105B030BD0000003801408088C0F36F
:100A1000080070472DE9F04387B001214FF40370BF
:100A2000FFF794FD4FF400484046FFF779FD01269B
:100A3000DFF84891ADF8146000248DF8174005A93F
:100A40004846FFF7BDFC2020ADF814004C4D8DF852
:100A5000174005A92846FFF7B3FC4020ADF8140065
:100A60008DF8174005A92846FFF7AAFC8020ADF8AD
:100A700014008DF8174005A92846FFF7A1FC414D49
:100A80002846FFF7E9FB4FF46027CDE902748DF8A3
:100A9000044000948DF805408DF8106069462846A2
:100AA000FFF714FC01212846FFF7CBFB2846FFF790
:100AB0006BFC2846FFF703FC0028FAD12846FFF715
:100AC00072FC2846FFF7EAFB0028FAD1072301222F
:100AD00008212846FFF71EFC07230122052128468E
:100AE000FFF718FC0723012206212846FFF712FC16
:100AF0000723012219462846FFF70CFC01214FF479
:100B00008160FFF723FD4046FFF70AFD0220ADF8A4
:100B100014008DF8174005A94846FFF751FC1A4DFF
:100B20002846FFF799FBCDE902748DF80440009444
:100B30008DF805408DF8106069462846FFF7C6FB22
:100B400001212846FFF77DFB2846FFF71DFC2846BC
:100B5000FFF7B5FB0028FAD12846FFF724FC28460A
:100B6000FFF79CFB0028FAD1072301220921284620
:100B7000FFF7D0FB07B0BDE8F0830000000C014098
:100B800000080140002401400028014010B5054C38
:100B900004212046FFF78EFC2046BDE810400221CC
:100BA000FFF78ABC0008014004210148FFF782BC1E
:100BB0000008014070B51A4D1A4C4FF07C5369285B
:100BC00014D021462A46C9689268702806D0762833
:100BD00019D015482161C4E9073005E01348E061E8
:100BE0004FF07E5021612062104605E01048C4E9B4
:100BF000070360682061286800F036FB20800D48FC
:100C0000007820B105E0A0682061E868F4E700F012
:100C10001FF82188BDE870404FF08040FFF7FABD13
:100C2000980000200C000020CDCC4C3F6666663F4B
:100C3000CDCCCC3D080000200349002008700821DD
:100C40000248FFF737BC0000080000200008014000
:100C50000349012008704FF4E15100F09BBB0000F4
:100C60000800002010B504466FF00400FFF724FDD3
:100C70000F4801680F48B1FBF0F20F4802704FF4C3
:100C8000FA52B1FBF2F242600CB94FF47A74B1FB44
:100C9000F4F0C1084FF0E020026942F00202026164
:100CA000491E4161016941F00101016110BD00006F
:100CB0005800002000127A000000002070B54FF0AC
:100CC000E02500216C69094AAB6912785043AA6992
:100CD0009A42FCD002D2A3EB020302E0A4EB02068C
:100CE0003344194413468142F1D370BD0000002003
:100CF00070B5044600F0A8F8206000F0D3F86061F9
:100D000000F054F9A06100F027F9606000F0FAF8F3
:100D1000E060D4E9000100F07BFD0546A060D4E965
:100D2000050100F075FD2946E06100F079FE2061C3
:100D300070BD00002DE9F04704463B48FFF7D8FF9F
:100D400039493A4A00234868032700EB020C384A25
:100D5000012502264FF03F4A4FF0FF39BCF5402FE6
:100D600001D2676019E0DFF8CCC08444BCF5E01F15
:100D700001D2666011E0DFF8B8C06FEA0C0C844461
:100D8000BCF5B00F01D2656007E0904203DC50452E
:100D900001D2636001E0C4F80490DFF89CC0C86829
:100DA000DFF898808444C44501D2A5601AE09042DF
:100DB00006DBDFF88CC00A69624501DAA66011E043
:100DC0001F4A52420244B2F5C01F01D8A76009E091
:100DD000194A5242904203DA504501D2A36001E021
:100DE000C4F80890C869174A10F1FF4F01D3E560B5
:100DF00012E08A469046D16800F0D6FC01D8E66041
:100E00000AE0DAF81C00D8F80C1000F0CDFD01D291
:100E1000E76001E0C4F80C906068002802DC2560FF
:100E2000BDE8F0872660FBE798000020FFFF33BE97
:100E300000005841FFFF4FBE333333C033338B01C3
:100E40000000D8410C00002010B5124C07230122ED
:100E500008212046FFF75EFA01212046FFF799FAA4
:100E600002212046FFF724FA0028F9D02046FFF798
:100E70001CFA00F085FC084900F0CAFC6FF00B0179
:100E800000F075FE054900F0CBFDBDE810400449B7
:100E900000F094BB00240140333353404A0CD23F4E
:100EA000AE47613D10B5124C0723012209212046AF
:100EB000FFF730FA01212046FFF76BFA02212046A6
:100EC000FFF7F6F90028F9D00A48FFF7EEF900F02D
:100ED00057FC094900F09CFC6FF00B0100F047FE45
:100EE000064900F09DFDBDE81040054900F066BBD5
:100EF0000028014000240140333353404A0CD23FC4
:100F0000AE47613D10B5114C07230122194620461A
:100F1000FFF700FA01212046FFF73BFA02212046A5
:100F2000FFF7C6F90028F9D02046FFF7BEF900F018
:100F300027FC074900F06CFC6FF00B0100F017FE76
:100F4000BDE81040034900F063BC000000240140EC
:100F5000333353400000304110B5114C07230122B8
:100F600006212046FFF7D6F901212046FFF711FAA6
:100F700002212046FFF79CF90028F9D02046FFF710
:100F800094F900F0FDFB074900F042FC6FF00B0103
:100F900000F0EDFDBDE81040034900F039BC000051
:100FA00000240140333353400000304110B5114C50
:100FB0000723012205212046FFF7ACF90121204635
:100FC000FFF7E7F902212046FFF772F90028F9D070
:100FD0002046FFF76AF900F0D3FB074900F018FC40
:100FE0006FF00B0100F0C3FDBDE81040034900F0B5
:100FF0000FBC000000240140333353400000304157
:1010000010B5164C4FF480712046FFF755FA611564
:101010002046FFF751FA20212046FFF74DFA4021E4
:101020002046FFF749FA80212046FFF745FA0C4C8D
:1010300000212046FFF7ECFB00212046FFF7EAFBEA
:1010400000210848FFF7E2FB00212046FFF7DCFB08
:101050002046BDE810400021FFF7D8BB000C01403E
:101060000008004000040040F0B503245D4E89B044
:1010700000284FF0010175D00420FFF75BFA012131
:101080000220FFF757FA01210820FFF75FFA01213C
:101090005548FFF7E3F94FF47870ADF81C001820BD
:1010A0008DF81F008DF81E4007A93046FFF788F91C
:1010B00041F28730ADF8140041F61F40ADF8100042
:1010C0004A4E01250024ADF81650ADF8124004A98F
:1010D0003046FFF7A3FB464F04A93846FFF79EFBB7
:1010E0006020ADF80000ADF80250ADF80640ADF854
:1010F000084069463046FFF74BFB69463846FFF724
:1011000047FB01213046FFF721FB01213846FFF75D
:101110001DFB08213046FFF724FB08213046FFF76E
:1011200026FB08213046FFF72CFB08213046FFF74D
:1011300061FB08213846FFF71AFB01213046FFF713
:10114000F1FA01213846FFF7EDFA01213046FFF7A9
:10115000F3FA01213846FFF7EFFAFFF751FF09B024
:10116000F0BDFFE70820FFF7F1F910258DF80350D7
:101170002801ADF800008DF8024069463046FFF7BF
:101180001FF98DF803506801ADF800008DF802409A
:1011900069463046FFF714F98DF803502020ADF86A
:1011A00000008DF8024069463046FFF709F98DF8D6
:1011B00003504020ADF800008DF8024069463046EB
:1011C000FFF7FEF88DF803508020ADF800008DF891
:1011D000024069463046FFF7F3F8FFF711FF00F0D1
:1011E00009F8BCE7000C014000081A0000080040A4
:1011F0000004004010B502210448FFF709FBBDE8D8
:1012000010404FF480710248FFF754B900080040C5
:10121000000C014070B5002400F014F8074D084898
:10122000FFF788FD6920FFF7C5FC6420FFF746FD46
:10123000641CAC42F3DB002070BD0000F0490200EA
:101240006C00002010B500F05DF8FFF7F5FC00F031
:10125000EDF80020FFF708FF4820FFF703FDBDE889
:101260001040FFF7D7BB00002DE9F047244D234C79
:101270006968A960296869608946216900F0C5FB31
:10128000074628603946E06900F0C2FA8046A0624D
:101290003946206A00F0BCFAE16A00F01BF90C3D07
:1012A0000646E0626868A860286868604946384673
:1012B00000F0B6FB01462860606A00F0A9FA054616
:1012C00020633146404600F005F9294600F002F956
:1012D0006063616900F068FB01D2606907E0A169A1
:1012E000606B00F061FA01D3606B01E0A06960639C
:1012F00000F026FA80B2BDE8F08700000C00002064
:101300008C000020F8B501210420FFF71FF901210E
:101310000846FFF71BF901211C48FFF79FF810252D
:101320008DF803500220ADF80000194E03248DF80B
:10133000024069463046FFF743F802213046FFF786
:10134000B9F88DF803500420ADF800008DF8024084
:1013500069463046FFF734F804213046FFF7AAF813
:101360008DF80350ED02ADF800508DF8024069464B
:101370003046FFF725F829463046FFF79DF8FFF77E
:1013800017F8FFF703FCFFF70FFCF8BD0002300071
:101390000008014070B50D460446012188B008469A
:1013A000FFF7C8F801210420FFF7D0F80820ADF8B6
:1013B0001C0018208DF81F0003208DF81E0007A9BF
:1013C0001848FEF7FDFF641EADF810406D1EADF825
:1013D000145001240025A607ADF81640ADF81250B0
:1013E00004A93046FFF71AFA6020ADF80000ADF806
:1013F0000240ADF80650ADF8085069463046FFF798
:10140000C7F908213046FFF7F5F901213046FFF70B
:1014100093F90548322104703046FFF7FBF908B014
:1014200070BD0000000801400800002010B5012137
:1014300086B08803FFF78AF801210420FFF786F8B9
:101440004FF40070ADF8100003208DF81200182042
:101450001E4C8DF8130004A92046FEF7B1FF21159C
:10146000ADF8101004218DF8131004A92046FEF7E2
:10147000A7FF25208DF8140001208DF815008DF8A8
:1014800016008DF8170005A8FFF718F84FF4E130A3
:1014900000900020ADF80400ADF80600ADF808009B
:1014A000ADF80C000C200A4CADF80A006946204645
:1014B000FFF756FA012240F225512046FFF737FA8E
:1014C00001212046FFF70AFA06B010BD00080140CE
:1014D0000038014090EA010F48BF81F0004100F15F
:1014E000A682421A3CBF801A89184FEAD0524FF0A8
:1014F0007F4C1CEA410FA2EBD15318BF9CEA026F4C
:1015000000F03B804FF0004C4CEA00204CEA0121F7
:1015100021FA03FC10EB0C0C1ED202F1FF325FEA41
:101520001C2040EBC25038BF70471CF07F0F4FEAC1
:10153000400C18BFBCF17F4F38BF7047C3F1200388
:10154000994008BF20F00100BCF17F4F38BF7047C1
:10155000A0F1C04000F023BA4FEA3C00000A40EB83
:10156000C25028BF1CF0FF0F4FEA400CE6D018BF56
:10157000BCF17F4F38BF7047EAE79CEA026F05D0A5
:1015800010EA5C0F08BF00F00040704710B500F093
:10159000C0F900BF64FBBE3E014800F0B6BA00BF10
:1015A0000000C07F401058BFC0F14040491058BFF4
:1015B000C1F140418142EFF3008070474FF47F0C4E
:1015C0001CEAD0121EBF1CEAD11392EA0C0F93EA58
:1015D0000C0F00F0858090EA010F48BF42F4807242
:1015E00040F4000C41F400002CF07F4120F07F40DB
:1015F00000B58142A2EB03020FF2081CACEB504E87
:10160000C0F100009EF800E04FEA4E0E00FB0EFC19
:1016100038BF49004FEA2C1C02F5FA020CFB0EF30E
:101620004FEACE1E4FEA112C4FEAC1210EEB635E4A
:1016300042EB22420EFB0CFC4FEA1C5300FB031151
:101640004FEA112C4FEA01310EFB0CFC4FEADC4C47
:1016500000FB0C11C14228BF09184CEB03335DF8A5
:1016600004EB10EB410143EBC250B2F57C0F38BFE5
:10167000704729D512F0F00F1CBF00F1C04000F0F8
:1016800000407047008182838485868788898B8C9F
:101690008D8E8F919293959697999A9C9D9FA0A2DB
:1016A000A3A5A7A8AAACAEB0B2B3B5B7B9BCBEC02B
:1016B000C2C5C7C9CCCED1D4D7D9DCDFE2E6E9ECCC
:1016C000F0F3F7FAFE0000004FEA400C0CF1807CCA
:1016D000BCF17E4F28BF7047B0F1C04000F05FB949
:1016E00090EA010F0CEAD11348BF42F480726245C0
:1016F00038BF634507D213F47F0F16D080EA01008C
:1017000000F00040704710B500F003F9097EFC3E80
:1017100000F005B880EA010000F00040704780EA60
:10172000010000F0004000F03AB912F47F0F04BF4E
:101730000248704780EA010000F031B90000C07F24
:10174000C10DD1F19E0206DB4FEA002343F00043B6
:1017500023FA02F07047004207D54FEA4001B1F189
:10176000FE4F02D24FF00000704710B500F0D1F8E4
:1017700049922480002070476FEA200070470000E3
:10178000B0FA80F310FA03F2C3F19D030AD0D90531
:1017900001EB1220530638BF704700F1010008BF6B
:1017A00020F001007047000050EA010C00F11380A6
:1017B0001CF5000F58BFBCF5000F01D488427047DC
:1017C00007D710F5000F58BF11F5000F15D4884248
:1017D0007047894270471CF5000F04D5BCF5000F17
:1017E000F7D5814270474FF0807C1CEB400F38BF2B
:1017F0001CEB410F01D28142704710B500F089F80F
:10180000922449004FF000504FF08051FFF7CABEBC
:101810004FF47F0C1CEAD0121EBF1CEAD11392EACF
:101820000C0F93EA0C0F00F0478090EA010F48BFBD
:1018300042F480724FF0004C4CEA00204CEA012147
:1018400002EB0302A0FB0113A2F50002002918BF5E
:1018500043F001035B0028BF4FEA330342EB22420F
:101860005FEA132C4CEBC2502EBFBCEB436FB2F5BA
:101870007C0F70474FEA036CBCF1004F08BF20F0AB
:101880000100B2F57C0F38BF70470BD582F0FF0224
:1018900012F5803FC8BF704700F1C040D8BF00F0CC
:1018A0000040704700F5000C5FEA4C0C48BF7047E1
:1018B000B0F1C04000F073B890EA010F0CEAD11308
:1018C00048BF42F48072624538BF634504D280EA63
:1018D000010000F00040704710B500F01AF800BF9A
:1018E0008900013E00F007B800F009B85FEA410C3A
:1018F0005FEA1C6C08D080EA010000F050B85FEA93
:10190000400C5FEA1C6CF6D14FF00040A0F580005F
:1019100070470EF1020E2EF0030E5EF8044B2442C7
:1019200004D44FEA4102B2F17F4F11D84FEA40038D
:10193000B3F17F4F0CD80ED14FEAD07CB2F17F4F7C
:101940000CEB4C0C0CF1020C08BF4CEBD17C04E00E
:101950004FF0080C01E04FEAD17C0CEB4C0324FA69
:1019600003F404F00704B4F1040C06D20EEB840C6B
:10197000BDE810404CF0010C6047DFE80CF00708B0
:1019800002024FF00040A0F5800010BD0846420062
:1019900018BFD2F1807288BF00F0004010BDFF2157
:1019A00041EAD050C005704751EA000C00F11380A5
:1019B0001CF5000F58BFBCF5000F01D481427047E1
:1019C00007D711F5000F58BF10F5000F15D481424D
:1019D0007047894270471CF5000F04D5BCF5000F15
:1019E000F7D5884270474FF0807C1CEB410F38BF21
:1019F0001CEB400F01D28842704780EA010081EA67
:101A0000000180EA0100FFF7F8BE80F0004090EA94
:101A1000010F7FF566AD81F0004100F008B80000CD
:101A200090EA010F48BF81F000413FF55AAD421ADC
:101A300004D882F00042A0EB020011444FEAD052D9
:101A40004FF07F4C1CEA410FA2EBD15318BF9CEA28
:101A5000026F4AD04FF0004C4CEA00204CEA0121C2
:101A600021FA03FCB0EB0C0C0FD412F0FE0F36D0B1
:101A70005FEA4C001DD5001240EBC25038BF7047E2
:101A80001CF03F0F18BF70470BE0A2F101025FEAA4
:101A90001C2040EBC25038BF70471CF07F0F18BFAE
:101AA0007047C3F12003994014BF401E20F001008D
:101AB000704780084FEA122308BF7047B0FA80FCD5
:101AC000A2EB0C02CCF1280C60FA0CF093EA122F76
:101AD00004BF00EBC25070474FEAC3707047130A4F
:101AE0005FEADC1008BF7047F6E79CEA026F04D09B
:101AF00010EA5C0F08BF0020704710B5FFF709FF20
:101B000040DFF63E81F0004070470CF00F03092BD8
:101B100008BF082000F051800A2B0BD0082B18BFFB
:101B2000704708BF1CF0400F0AD04FF000004FF084
:101B3000000170471CF0400F18BF4FF00040704785
:101B40001CF0100F08D020F0704300F07F4242EAF2
:101B5000D3014FEA4370704700F0604021F07F42AC
:101B600042EA000201F07F4040EA727070474FF095
:101B7000FF0212EAD0521CBF92F0FF038B42C2BF99
:101B8000D14200EBC1507047002A0AD0002B0BD085
:101B9000002900F00040A4BF40F0FE4040F40000E7
:101BA000704700F00040704743024FF00B0C18BF25
:101BB0004CF0806C7FF4F0AC70471CF4801F11D0A7
:101BC0001CF4E02F03D06FEACC31490070474FF08E
:101BD0004050EFF3008222F0704242EA000282F3AA
:101BE000008870474FF00000704700000C1C000890
:101BF000000000206C00000028010008781C00088C
:101C00006C000020AC060000440100080000000049
:101C10000000000000000000000000000000C03FC5
:101C20000000C04100002042000000000070DF45BD
:101C300000004842CDCC4C3FCDCC4C3F000080BF93
:101C40000000000000000000000000000000000094
:101C5000020406080000000001020304010203045C
:101C60000607080900A24A04000000000000000066
:081C7000010203040607080944
:04000005080000ED02
:00000001FF
